:020000040800F2
:1000000038050020010100086B27000817220008AE
:100010006927000879090008712B0008000000001A
:100020000000000000000000000000006F27000832
:10003000910A0008000000006D2700089F270008B3
:100040001B0100081B0100081B0100081B01000820
:100050001B0100081B0100081B0100081B01000810
:100060001B0100081B0100081B0100081B01000800
:100070001B0100081B0100081B0100081B010008F0
:100080001B0100081B010008B10800081B01000843
:100090001B0100081B0100081B0100081B010008D0
:1000A0001B0100081B0100081B0100081B010008C0
:1000B0001B0100081B0100081B0100081B010008B0
:1000C0001B0100081B0100081B0100081B010008A0
:1000D0001B010008652B00081B0100081B0100081C
:1000E0001B0100081B0100081B010008DFF80CD0F1
:1000F00000F05AFB00480047FD2C0008380500209E
:100100000648804706480047FEE7FEE7FEE7FEE7B1
:10011000FEE7FEE7FEE7FEE7FEE7FEE7052800084C
:10012000ED000008202A04DB203A21FA02F0002129
:10013000704721FA02F3D040C2F1200291400843F7
:1001400019467047D2B201E000F8012B491EFBD2DC
:1001500070470022F6E710B513460A4604461946D2
:10016000FFF7F0FF204610BDF0B480EA0102D40F83
:100170004200B2EB410F02D20246084611464A0045
:1001800042D0C30DDDB2C1F3C752AD1A202D35DA0E
:10019000C1F3160141F4000204B15242C5F1200638
:1001A00002FA06F12A411044B3EBD05F23D0C4B168
:1001B000012DA0EBC35009DCF0BC4FF0004202EA75
:1001C000C352DBB200F5000000F00DB9400000F1B1
:1001D000807000EBC350A0F1807040EAD1704900FC
:1001E00009E0490841EAC071A0EBC35000F50000E6
:1001F000400800EBC350F0BC00F0ECB861420122B3
:1002000002EB4101001BF6E7F0BC704781F00041B2
:10021000AAE780F00040A7E730B480EA010202F0CC
:10022000004530F0004221F0004013D090B1C30DE2
:10023000D40DC2F31601C0F31600E41A41F4000114
:1002400040F400027D34914201D3641C00E0490077
:10025000002C02DA30BC002070474FF4000000236D
:10026000914201D3891A034340084FEA4101F7D173
:1002700051B1914202D14FF0004105E002D24FF05E
:10028000010101E06FF0010103EBC450284430BCD0
:1002900000F0A0B82DE9FE4F81EA030404F0004409
:1002A00021F0004100944FF0000B23F0004350EA8E
:1002B00001045ED052EA03045BD0C3F30A54C1F3D5
:1002C0000A552C44A4F2F3340194A0FB0254C1F368
:1002D000130141F48011C3F3130343F4801301FBB2
:1002E000024400FB034E840A970A44EA815447EA19
:1002F0008357A4FB076802958D0A05FB07854FEA23
:10030000932C04FB0C542705029D4FEA065847EA3C
:100310001637B5EB08056EEB070C870E920E47EA11
:10032000811742EA8312A7FB0201B6EB0B0164EBD3
:1003300000042B0D43EA0C335E1844EB1C50DA46E4
:100340005146E7FB0201C5F313044FEA0B3343EABE
:1003500014534FEA0432019C43EA0603A4F10C044F
:100360000294009CCDE900B400F07AF803B0BDE837
:10037000F08F00200146F9E796230022114600F095
:1003800032B80EB540F2334102910021CDE900119F
:100390000A460B4600F064F803B000BD01F00043CC
:1003A00030B421F0004150EA010206D00A0DA2F556
:1003B0006072C1F31301002A02DC30BC00207047D8
:1003C000440F44EAC104C100E01830BC00EBC25045
:1003D000AFF300800029A8BF7047401C490008BF48
:1003E00020F00100704710B4B0FA80FC00FA0CF065
:1003F00050EA010404BF10BC704749B1CCF120049D
:1004000021FA04F411FA0CF118BF01212143084329
:10041000A3EB0C01CB1D4FEA00614FEA102042BF55
:10042000002010BC704700EBC35010440029A4BF4B
:1004300010BC7047401C490008BF20F0010010BCF0
:10044000704710B5141E73F1000408DA401C41F126
:10045000000192185B411A4301D120F0010010BD48
:100460002DE9F04D92469B4611B1B1FA81F202E0BE
:10047000B0FA80F22032904600F0A8F904460F4608
:1004800040EA0A0041EA0B0153465A46084313D09A
:10049000114653EA010019D0C8F140025046FFF757
:1004A00041FE05460E4650465946424600F08EF93A
:1004B000084305D0012004E020463946BDE8F08D10
:1004C0000020054346EAE0762C4337430A9863054B
:1004D000E40AA0EB08000022FD0A44EA47540A306F
:1004E00002D500200146E9E7010510196941DDE95F
:1004F000084500196941BDE8F04DA2E72DE9FE4F1E
:10050000804681EA0300C00F0C46009021F00041B4
:1005100023F00045B8EB0200A94105D24046214630
:1005200090461C460B46024623F00040104347D03D
:10053000270DC7F30A00C3F30A510290401A019035
:1005400040286BDAC3F3130040F4801B00989246F6
:1005500020B10023D2EB030A63EB0B0B0198594641
:10056000C0F14002504600F031F906460D465046B3
:100570005946019A00F039F910EB08006141002456
:1005800087EA115284EAE7731A4340D0009A62B3B3
:10059000019A012A4FEA075215DC001B61EB0201A8
:1005A0004FF0004202EA0752CDE90042001C41F53B
:1005B000801132462B46FFF753FF03B0BDE8F08FA2
:1005C00040462146F9E7001B61EB0201001C41F5A2
:1005D000801300185B412018A2F5001747EB0301B8
:1005E00040EAD570B6196D4111E06D084FEA360644
:1005F00045EAC0754FEA0752001B61EB0201001C7F
:1006000041F5801149084FEA300000195141324646
:100610002B4603B0BDE8F04FFFF713BF009801224F
:1006200040000023D0EB020263EBE0730098214608
:100630004FEAE074B8EB000061EB0401E9E783F0F6
:1006400000435BE781F0004158E72DE9F04D81EA76
:10065000030404F0004B21F0004514464FF0000A5B
:1006600023F0004150EA050220D054EA01021DD0D7
:10067000C5F30A570246C5F31303C1F31300C1F3D0
:100680000A5640F4801543F48013A7EB0608101BAC
:10069000D64608F2FD3873EB050002D308F10108D5
:1006A00001E092185B41B8F1000F03DA0020014627
:1006B000BDE8F08D00204FF48011064684460EE020
:1006C000171B73EB050705D3121B63EB05030643EA
:1006D0004CEA010C49084FEA300092185B4150EA9D
:1006E0000107EDD152EA030012D082EA040083EA46
:1006F0000501084305D0101BAB4106D2012200239F
:1007000006E000224FF0004302E06FF001025310B8
:100710001AEB06004CEB085110EB0A0041EB0B0101
:10072000BDE8F04DFFF78DBE70B521F000430343E7
:100730000CD0C1F30A550024D5EB040564EB040387
:10074000D617AD1AB34102DB0020014670BD201858
:1007500041EB025170BD0EB5C10F80EAE070084454
:10076000CA07002140F233438DE80E000A460B46CB
:10077000FFF776FE03B000BD30B5041E71F1000432
:1007800004DB4FF00044404264EB0101141E73F19E
:10079000000405DB1C464FF00043524263EB0403A8
:1007A000994208BF904230BD064C074D06E0E06814
:1007B00040F0010394E8070098471034AC42F6D3A8
:1007C000FFF798FC2839000848390008202A04DB84
:1007D000203A00FA02F1002070479140C2F1200354
:1007E00020FA03F3194390407047202A06DBCB1709
:1007F000203A41FA02F043EAE07306E041FA02F3DC
:10080000D040C2F1200291400843194670472DE9BB
:10081000F04D00231A461B1A8A4103DB00200146D3
:10082000BDE8F08DC1F30A52C1F3130141F4801504
:100830004FF0000BD10702D100186D41521E002766
:10084000044640F2FF11384601EB620A3E468046FC
:10085000024600204FF48011FFF764FCC219714179
:10086000BB1846EB0100B4EB030C75EB000C04D392
:10087000E41A65EB000517460E46241908F101003D
:100880006D4180463428E3DDF91946EB0600091B6B
:10089000A84103D24FF0FF32134601E00022134675
:1008A0001BEB070046EB0A51BDE8F04DFFF7C9BD51
:1008B000014800F071B900003400002070B5044612
:1008C00000688168C943C9071CD1816821F0010112
:1008D000816000F051FC05460FE000BF00F04CFCC9
:1008E000401B022809D9A06A40F01000A062E06A0B
:1008F00040F00100E062012070BD20688068C043C4
:10090000C007EBD0002070BDF8B500260446009665
:1009100000688168C943C90728D0816841F0010196
:100920008160134813490068B0FBF1F000E0401EFD
:1009300000900028FBD100F01FFC054611E000BF2D
:1009400000F01AFC401B02280BD9A06A40F01000EE
:10095000A062E06A40F00100E06284F824600120B7
:10096000F8BD20688068C043C007E9D10020F8BD09
:100970002C00002040420F00FEE7000010B500F000
:1009800069F800F045F803490870BDE8104000F030
:1009900031B80000000000202DE9F041144E002481
:1009A0004FF001084FF480473946304600F0DAFB3B
:1009B0000028F9D0322002F08BF93946304600F099
:1009C000D1FB0028C4F1070108FA01F00ED028433A
:1009D000C5B23946304600F0C5FB0128F9D0641C89
:1009E000E4B2082CE0D32846BDE8F0818543F0E767
:1009F000000C014070B5054D002400BFFFF7CCFF8F
:100A00002855641CE4B2052CF8D370BD18000020F2
:100A100070B50024282002F05BF90D4E4FF480459C
:100A20002946304600F09EFB48B9502002F050F9AC
:100A30002946304600F096FB012800D101242946C2
:100A4000304600F08FFB0128F9D0204670BD000031
:100A5000000C014070B50D4D4FF4804421462846EE
:100A600001F091FE00222146284600F080FB46F26C
:100A7000A81002F02DF901222146284600F077FB4C
:100A800021462846BDE8704001F072BE000C0140CE
:100A900070477047F8B50024009490F8242025464C
:100AA000012A12D0012280F824204A681F23072A35
:100AB0000DD20668776B521E02EB820293409F4371
:100AC0000B6893401F43776319E00220F8BD066866
:100AD0000D2A0AD2376BD21F02EB820293409F434A
:100AE0000B6893401F43376309E0F76A0D3A02EB46
:100AF000820293409F430B6893401F43F7620A684A
:100B0000072306680A2A0AD3F7680A3A02EB420268
:100B100093409F438B6893401F43F76008E0376919
:100B200002EB420293409F438B6893401F4337611F
:100B30000A68102A01D0112A20D1124B02689A4269
:100B400017D193681B0219D4936843F40003936090
:100B50000968102912D10C490C4A0968B1FBF2F15D
:100B600001EB8101490000E0491E00910029FBD101
:100B700004E0816A41F020018162012480F8245060
:100B80002046F8BD002401402C00002040420F0008
:100B900070470068C06C704710B504460068416833
:100BA000890626D50168890723D5A16AC90603D419
:100BB000A16A41F40071A1628168C1F34241072931
:100BC00010D1217B71B9416821F020014160A06AF8
:100BD00020F48070A062A06AC00403D4A06A40F030
:100BE0000100A0622046FFF7D3FF21686FF01200DA
:100BF00008602068416809062ED5016849072BD591
:100C0000A16AC90603D4A16A41F40051A1628168B6
:100C1000C1F30231072909D04168490515D481681B
:100C2000C1F34241072910D1217B71B9416821F0FC
:100C300080014160A06A20F48050A062A06AC005D3
:100C400003D4A06A40F00100A0622046FFF721FF14
:100C500021686FF00C0008602068416849060DD5D6
:100C60000068C0070AD0A06A40F48030A062204625
:100C700000F094F821686FF00100086010BD0000DA
:100C80002DE9F0414FF0000704003D467ED0A06AF8
:100C9000002628B9E66284F82460204600F080F837
:100CA0002046FFF70BFEA16AC90600D420B1A06A56
:100CB00040F01000A06269E0A16A21F4885141F07F
:100CC0000201A1626268E169237B0A4347EA4301AA
:100CD0000A43A1684FF48077B94209D0012907D0AF
:100CE0005FF0000194F814C0BCF1010F02D00AE0DB
:100CF0003946F7E7F3B1A36A43F02003A362E36A3E
:100D000043F00103E3622368D3F804C02CF4694C78
:100D10004CEA010CC3F804C021688B68DFF870C08E
:100D200003EA0C0313438B60A168B9420BD001297D
:100D300009D00CE0DFF85CC0A3690CEB43330B4334
:100D400043F40061DFE7218A0D05A5F580152168D0
:100D5000CB6A23F470032B43CB62216889680E4B66
:100D60001940914208D1E662A16A21F0020141F0E6
:100D70000101A162BDE8F081A06A20F0020040F00C
:100D80001000A062E06A40F00100E0620120F1E79B
:100D9000FDF7E1FF00E0FFFFFE0E1FFF70470000C0
:100DA00000B585B000210091019102910391006886
:100DB0001249884220D11248816941F40071816151
:100DC000816901F400710491816941F0040181613C
:100DD0008069694600F0040004900120009003201F
:100DE0000190084800F0CEF800221146122000F0D1
:100DF000B5FC122000F0A4FC05B000BD00240140A9
:100E0000001002400008014070B5044690F824002C
:100E100001280DD0012084F824002046FFF774FD3E
:100E200002004FF0000005D084F82400104670BD89
:100E3000022070BDA16A40F20123994341F4807100
:100E4000A1621F4D23681F49AB4218D10E6816F4EA
:100E5000702F14D0A66A46F48016A6620E68760536
:100E600005D5A66A26F4005646F48056A662A66A00
:100E7000F6040AD5E66A26F00606E66206E0A66AE9
:100E800026F48016A6625E68E9E7E06284F8240032
:100E90006FF00200186020688368C3F34243072B99
:100EA00005D1A84208D1096811F4702F04D08168D7
:100EB00041F480118160B9E7816841F4A001F9E74C
:100EC000002801400424014010B590F821100024AE
:100ED000022903D00421816301243DE001680A68EE
:100EE00022F00E020A6001680A6822F001020A601C
:100EF0001A4A0168914201D1012121E0174A1432B6
:100F0000914201D110211BE0144A2832914201D1B3
:100F1000891515E0114A3C32914201D189140FE044
:100F20000E4A5032914202D14FF4803108E00B4A10
:100F30006432914202D14FF4801101E04FF0807190
:100F4000064A083A5160012180F82110002180F8FA
:100F50002010416B01B18847204610BD08000240B7
:100F600070B5044600F008F90546601C02D004483C
:100F70000078044400F000F9401BA042FAD370BD91
:100F8000200000202DE9F84FDFF8B891002409F186
:100F9000040A0AF1040B23460F270BF1040EC9E0E3
:100FA0000125A5402A40AA427DD1674ED1F804C050
:100FB000ACEB0608B44532D014DCBCF1030F3AD0D8
:100FC00009DCBCF1000F2AD0BCF1010F1CD0BCF130
:100FD000020F31D11DE0BCF1110F17D0BCF1120F7F
:100FE0002AD119E0B8F5881F19D006DCB8F5803F82
:100FF00015D0B8F5801F1FD111E0B8F5001F0ED035
:10100000B8F5041F18D10AE0CB6815E0CB681B1DAA
:1010100012E0CB6808330FE0CB680C330CE08B6830
:101020002BB1012B4FF0080303D0456104E00423EA
:1010300002E0056100E00023FF2A01D8064601E036
:1010400000F104064FEA840501D9A5F12005D6F880
:10105000008007FA05FC28EA0C0803FA05F548EABF
:101060000508C6F800804D68ED0062D5374DAE69C1
:1010700046F00106AE61AD6924F0030605F00105F6
:101080000095334D06EB050CDCF80850A607360F2B
:1010900007FA06F825EA0805DFF8B880404503D1CD
:1010A0004FF0000817E044E0DFF8AC80404502D183
:1010B0004FF001080FE0DFF8A480404502D14FF067
:1010C000020808E0DFF89880404502D14FF003089D
:1010D00001E04FF0040808FA06F848EA0508CCF8E1
:1010E00008804D68D9F80060ED034D4601D51643E0
:1010F00000E096432E604D68DAF80060AD03554677
:1011000001D5164300E096432E604D68DBF8006081
:10111000ED025D4601D5164300E096432E604D6812
:10112000DEF80060AD02754601D5164300E0964337
:101130002E60641C0D682A46E5407FF431AFBDE89F
:10114000F88F000000040140000011100010024060
:101150000000014000080140000C01400010014067
:10116000001401408068084000D0012070470AB197
:10117000016170470904FBE701488068704700007F
:101180002000002070B504001BD094F83D0000251D
:1011900020B984F83C50204600F04AFA242084F814
:1011A0003D002068016821F00101016000F014FC9D
:1011B0004D4A6168914201D84C4900E04C4988424F
:1011C00001D2012070BD4B492368B0FBF1F15E688C
:1011D00026F03F060E435E606368934206D94FF4E3
:1011E000967359434FF47A73B1FBF3F12368491CAA
:1011F0001E6A26F03F06314319626168914210D899
:101200004900401EB0FBF1F2521CC2F30B02042A4B
:1012100001D2042022E0B0FBF1F0401CC0F30B002F
:101220001CE0A368F3B301EBC10202EB0116421EFE
:10123000B2FBF6F2521C42F48042120549D093B33D
:1012400001EBC10202EB0111401EB0FBF1F0401CAA
:10125000C0F30B0040F4804040F400402168CA69AC
:101260004CF6FF739A431043C861D4E90701084361
:1012700021680A6822F0C00210430860D4E9030123
:1012800001432068826848F2FF339A43114381602A
:10129000D4E9050108432168CA6822F0FF0210431F
:1012A000C86001E00EE016E02068016841F001012D
:1012B00001602564202084F83D00256384F83E50B9
:1012C000002070BD01EB4106421EB2FBF6F2521C3B
:1012D000B3E70120C2E701EB4101401EB0FBF1F092
:1012E000401CC0F30B00B7E7A086010080841E00FD
:1012F00000093D0040420F002DE9F84F1F4690467F
:101300008A460446DDF82890FFF736FF054694F834
:101310003D00202879D119230122774920460095E4
:1013200001F066F80028F5D194F83C0001286CD053
:10133000012084F83C0020680168C90703D10168D6
:1013400041F0010101602068016821F40061016041
:10135000222084F83D00102084F83E0000262664F8
:10136000C4F824806785608D20856448E0622B4640
:101370004A465146204600F066FF00287ED1208D67
:101380005F4F68B1012814D00228206801681ED080
:1013900041F48061016020684169806900909DE0AE
:1013A0002068416981690091016841F40071016020
:1013B00094E02068016821F48061016072B62068C1
:1013C000416981690091016841F400710AE041F4CA
:1013D0000061016072B6206841698169009101680D
:1013E00021F48061016062B678E0032850D80128BA
:1013F0000CD002284B464FF000023946204600959B
:101400000FD000F0F5FFC8BB10E073E02A46494654
:10141000204601F06CF888BB20680069616A08709A
:1014200053E000F0E5FF48BB72B61AE0206801689F
:1014300021F48061016072B620680069616A0870F9
:10144000606A401C6062208D401E2085608D401EB9
:1014500060854B46002239462046009500F0C8FFC3
:1014600060B92068016841F400710160206800697A
:10147000616A0870606A401C606200E00EE0218DC5
:10148000491E2185618D491E618562B621681AE079
:101490002A464946204601F02AF810B10120BDE84D
:1014A000F88F20680069616A0870606A401C606299
:1014B000218D491E2185618D491E618521684A69FA
:1014C000D24352070AD409690170606A401C606205
:1014D000208D401E2085608D401E6085208D002857
:1014E00083D1202084F83D0084F83E6084F83C607D
:1014F0000020D4E70220D2E7020010000000FFFF26
:10150000040001002DE9F84F1F4690468A46044624
:10151000DDF82890FFF730FE054694F83D002028BE
:101520007FD11923012240492046009500F060FF39
:10153000002876D194F83C00012872D0012084F86C
:101540003C0020680168C90703D1016841F001012E
:1015500001602068016821F400610160212084F8A5
:101560003D00102084F83E0000262664C4F8248044
:101570006785608D20852D48E0622B464A4651469E
:10158000204600F0CBFE90B9206841698069009048
:1015900036E02A464946204600F0DCFF50B1206C78
:1015A000042804D12068016841F400710160012021
:1015B000BDE8F88F606A216800780861606A401CA5
:1015C0006062618D491E6185218D491E89B2218528
:1015D00022685369DB435B070BD451B1007810617B
:1015E000606A401C6062608D401E6085208D401ED8
:1015F00020852A464946204600F0D4FE0028CED158
:10160000208D0028C5D154F83D0B016841F40071CC
:101610000160202004F81E09E67766770020C7E7FE
:10162000FFE70220C4E70000020010000000FFFFF7
:1016300010B586B0002100910191029103910068DC
:10164000104988421BD1104CA06940F00800A061ED
:10165000A069694600F0080004904FF440600090D3
:1016600012200190032003900848FFF78BFCE069EB
:1016700040F48000E061E06900F48000049006B06E
:1016800010BD00000058004000100240000C014056
:101690000248816802781144816070472000002070
:1016A000074810B5016841F010010160032000F007
:1016B00075F8002000F006F800F024F8002010BDB6
:1016C0000020024070B50D4D04464FF47A71287821
:1016D000B1FBF0F00A490968B1FBF0F000F062FBE1
:1016E00048B9102C07D200222146501E00F036F8CF
:1016F00000206C6070BD012070BD00002000002043
:101700002C0000200C4808B5816941F0010181617D
:10171000816901F001010091C16941F08051C1610D
:10172000C06900F0805000900448416821F0E061F9
:1017300041F00071416008BD00100240000001400E
:10174000002809DB00F01F020121914040098000C0
:1017500000F1E020C0F8001170470000F0B40E4B1B
:101760001B680C46C3F30223C3F10705042D00D9FF
:101770000425191D072901D2002300E0DB1E0126E4
:1017800006FA05F1491E214099409E40761E1640FA
:101790003143F0BC01F001BA0CED00E0064900F065
:1017A000070208684FF6FF03184040EA0220034A88
:1017B00010430860704700000CED00E00000FA05DF
:1017C0002DE9F84305460078354CC00754D0E06950
:1017D0000026C00008D4E06940F08050E061E06974
:1017E000012600F0805000902E480168C90512D4EF
:1017F0000168804641F480710160FFF7BDFC074637
:1018000005E000BFFFF7B8FCC01B642823D8D8F858
:101810000000C005F6D5206A10F4407021D0A988D8
:1018200001F4407181421CD0206A1F49012220F43A
:1018300040700A6000220A602062C00711D0FFF7E2
:101840009BFC074641F2883808E000BFFFF794FC94
:10185000C11B414502D90320BDE8F883206A8007F7
:10186000F4D5206A696820F44070084320621EB1F4
:10187000E06920F08050E0612878800705D5606835
:10188000A96820F44040084360602878C00605D568
:101890006068E96820F48000084360600020DBE7AE
:1018A0000010024000700040400442422DE9F04721
:1018B0000F46050061D0434E306800F00700B84283
:1018C00009D2306820F0070038433060306800F0FB
:1018D0000700B84251D128683B4C810712D5400718
:1018E00003D5606840F4E06060602878000703D5A5
:1018F000606840F4605060606068A96820F0F000A3
:10190000084360602878C00728D06868012810D094
:101910002168022810D0890700292EDA616821F099
:10192000030101436160FFF727FC804641F28839DB
:101930000DE021688903EFE78901EDE7FFF71CFC63
:10194000A0EB0801494502D90320BDE8F087606893
:10195000696800F00C00B0EB810FEFD1306800F047
:101960000700B8420BD9306820F0070038433060D8
:10197000306800F00700B84201D00120E5E7287880
:10198000400705D56068E96820F4E06008436060BE
:101990002878000706D56068296920F4605040EA7D
:1019A000C100606000F038F86168084AC1F30311B3
:1019B000515CC8400649086006480068FFF782FE8F
:1019C0000020C2E700200240001002407C380008DE
:1019D0002C000020240000200448054900684968C4
:1019E000044AC1F30221515CC84070472C0000201A
:1019F000001002408C380008044805490068496816
:101A0000044AC1F3C221515CC84070472C00002039
:101A1000001002408C38000812A185B00FC98DE873
:101A20000F0014A0144A006804905168134801F094
:101A30000C03042B10D0082B0ED1C1F38343C90330
:101A40001DF803000AD5516804AAC1F34041515C56
:101A50000A4A5043B0FBF1F005B0704708494843CB
:101A6000FAE7000002030405060708090A0B0C0D3B
:101A70000E0F1010010200000010024000127A0048
:101A800000093D002DE9F84F040070D02078C04DCA
:101A9000C00749D06868C0F38100012807D0686892
:101AA000C0F38100022809D16868C00306D5286800
:101AB000800339D560680028E7D035E06068B0F56C
:101AC000803F0BD010B1B0F5A02F11D0286820F4C2
:101AD00080302860286820F4802002E0286840F4E4
:101AE00080302860606890B1FFF746FB06460AE048
:101AF000286840F480202860F0E700BFFFF73CFB37
:101B0000801B642873D828688003F7D50CE0FFF7A2
:101B100033FB064605E000BFFFF72EFB801B642861
:101B2000F0D828688003F7D420789A4E80074FF0C9
:101B300001094FF0000839D5686810F00C0F07D084
:101B40006868C0F38100022809D16868C00306D420
:101B50002868800714D52069012808D110E0206981
:101B6000B0B1C6F80090FFF707FB074605E00AE1B1
:101B7000FFF702FBC01B0228C4D828688007F7D5EE
:101B80002868616920F0F80040EAC10028600DE093
:101B9000C6F80080FFF7F0FA074604E0FFF7ECFA1A
:101BA000C01B022823D828688007F7D420780007B4
:101BB0002CD57948A169D9B1C0F80090FFF7DCFABB
:101BC000074604E0FFF7D8FAC01B02280FD8686A5E
:101BD0008007F7D571484FF4FA510068B0FBF1F077
:101BE000009000BF0098411E0091FAD20EE080E004
:101BF000C0F80080FFF7C0FA074604E0FFF7BCFA20
:101C0000C01B022875D8686A8007F7D4207840077F
:101C100060D5E8690027C00008D4E86940F080502A
:101C2000E861E869012700F0805000905C48016895
:101C3000C90513D40168834641F480710160FFF740
:101C40009BFA824606E000BFFFF796FAA0EB0A0077
:101C500064284ED8DBF80000C005F5D5E0680128FF
:101C60000AD008B1052813D0286A20F001002862A4
:101C7000286A20F0040002E0286A40F0010028628F
:101C8000E06841F2883B98B1FFF776FA82460BE0B4
:101C9000286A40F004002862EEE700BFFFF76CFA04
:101CA000A0EB0A0159455AD8286A8007F6D50CE0FE
:101CB000FFF762FA824605E0FFF75EFAA0EB0A0141
:101CC00059454CD8286A8007F6D41FB1E86920F03E
:101CD0008050E861E06988B36968C1F38101022935
:101CE00044D00228C6F8608004D0FFF745FA0446C5
:101CF00038E034E0FFF740FA074604E0FFF73CFA2B
:101D0000C01B02282BD828688001F7D4206AB0F5C0
:101D1000803F05D16868A16820F4003008436860FE
:101D2000D4E908010843696821F474110843686024
:101D3000C6F86090FFF720FA044606E025E000BFF1
:101D4000FFF71AFA001B022809D828688001F7D586
:101D50001BE000BFFFF710FA001B022802D9032086
:101D6000BDE8F88F28688001F4D40EE00128F7D090
:101D70006868226A00F48031914204D1616A00F4FB
:101D80007010884201D00120EAE70020E8E7000057
:101D90000010024000004242800442422C00002019
:101DA0000070004010B5401EB0F1807F01D30120CB
:101DB00010BD4FF0E02460610F21601700F0EDFED0
:101DC0000020A06107202061002010BD70B590F8B0
:101DD0003C20012A19D0012400F83C4F0222427015
:101DE00050F83C3C5A689D6822F070060A684968C1
:101DF000324325F0800529435A6050F83C2C91600D
:101E0000447000210170084670BD022070BD10B5FD
:101E1000040003D094F83D0010B107E0012010BD8C
:101E2000002084F83C00204600F00CF8022084F8E2
:101E30003D00211D206800F009FD012084F83D00CF
:101E4000002010BD08B50068B0F1804F08D10548EA
:101E5000C16941F00101C161C06900F00100009059
:101E600008BD000000100240022180F83D1001680A
:101E70008A6802F00702062A03D00A6842F00102CB
:101E80000A60012180F83D100020704770B50446BB
:101E900090F83C00012817D0012584F83C5002201E
:101EA00084F83D002068826822F0770222F47F42A5
:101EB00082600868502830D00DDC20284DD005DC29
:101EC00098B310283BD148E0022070BD302844D0A0
:101ED000402834D139E0602828D0702806D0B0F5E9
:101EE000805F2CD0B0F5005F29D10AE0CB68D1E942
:101EF0000121206800F0E0FC2068816841F0770152
:101F000009E0CB68D1E90121206800F0D5FC206808
:101F1000816841F48041816011E0CA6849682068A5
:101F200000F0DCFC5021206807E016E0CA68496830
:101F3000206800F0E4FC6021206800F0C7FC84F811
:101F40003D50002084F83C0070BDCA684968206894
:101F500000F0C4FC40212068EFE7226801461046EB
:101F6000EBE7704770B5026804461068D1685369A2
:101F700010F00F0F50D003F0010501F490763543B7
:101F80005DD0C20705D0CA0503D5E26B42F001025D
:101F9000E263420705D5DA0703D0E26B42F00202A2
:101FA000E263820705D5DA0703D0E26B42F0040250
:101FB000E263020705D5DA0703D0E26B42F00802BC
:101FC000E263E26B002A33D0800604D5880602D58E
:101FD000204600F0BCFC20684069E16BC0F3801033
:101FE000090700D428B3204600F0A3FC206841690B
:101FF00049061AD5416921F040014161606BA0B1E9
:102000001B494163606BFEF75FFF002810D0606BD7
:10201000416BBDE870400847830610D58B060ED58E
:102020002046BDE8704000F092BC2046FFF799FFC3
:1020300070BD2046FFF795FF0020E06370BD0306EA
:1020400006D50B0604D52046BDE8704000F026BD3D
:102050004006F3D54806F1D5D168204621F040016D
:10206000D160202184F8391000F0D4F870BD000050
:102070002329000870B5040004D094F83900002525
:1020800010B106E0012070BD84F83850204600F001
:1020900023F8242084F839002068C16821F4005115
:1020A000C160204600F09EFC2068016921F4904147
:1020B00001612068416921F02A0141612068C168FD
:1020C00041F40051C160E563202084F8390084F8B0
:1020D0003A00002070BD000030B585B000240094A7
:1020E0000194029403940068184988422CD118483E
:1020F000816941F480418161816901F480410491E9
:10210000816941F0040181618069124D00F0040091
:1021100004904FF40070009002200190032003907F
:1021200069462846FEF72EFF2815CDE900046946CA
:1021300028460294FEF726FF002211462520FFF7CD
:102140000DFB2520FFF7FCFA05B030BD003801403B
:10215000001002400008014070472DE9F843044692
:1021600090F839001F4616460D46202850D1A5B1DB
:102170009EB194F8380001284AD0012084F8380034
:102180004FF00008C4F83C80212084F83900FEF7A5
:10219000F3FFA6848146E68426E00120BDE8F883AB
:1021A000E08C401EE084A0684B46B0F5805F4FF0A5
:1021B00000024FF080012046009703D000F09FFC02
:1021C000E8B90DE000F09BFCC8B928882168C0F38D
:1021D00008004860206908B16D1C05E0AD1C03E0F3
:1021E000216815F8010B4860E08C0028D8D14B46D7
:1021F000002240212046009700F081FC08B1032016
:10220000CCE7202084F8390084F838800020C5E726
:102210000220C3E77047FEE701684A69D2435205CE
:102220000FD46FF480624A61002140F8301F2022F1
:1022300042738173026942F004020261017301205A
:102240007047002070472DE9F84F0446C06A1E46CB
:1022500092460D4621680A6842F480620A600828A6
:1022600007D0012805D010F5803F02D0206B11283F
:1022700004D12068016841F4807101604FF00118B9
:102280005346002241462046009600F0B1F8F0BBCC
:10229000206908F10109B0F5804F0FD006202168B0
:1022A00000EAD51747F0F00008613346524608F1BE
:1022B0000701204600F0D0F848BB03E0E8B240F048
:1022C00001001BE02168E8B20861334652464946E6
:1022D000204600F0C1F8D0B92068416981690091B9
:1022E000016841F480710160534600224146204656
:1022F000009600F07DF850B947F0F10021680861C0
:10230000334652464946204600F0A6F800E001E078
:10231000002800D00120BDE8F88F0000F8B5044681
:10232000C06A1E460D461746082807D0012805D06A
:1023300010F5803F02D0206B122804D1206801687C
:1023400041F480710160134600224FF001112046D4
:10235000009600F04DF808BB2069B0F5804F0ED014
:102360000620216800EAD51040F0F00008613346ED
:102370003A460B49204600F06FF878B902E005F0C4
:10238000FE0000E0E8B221680861054933463A469C
:10239000891F204600F060F8002800D00120F8BD19
:1023A0000800010070B516460D4604460DE02046B3
:1023B000FFF732FF08B1012070BD681C05D0FEF7A1
:1023C000DBFE801BA84207D835B120684069C043B6
:1023D0004007ECD4002070BD002044F8300F2021CD
:1023E0006173A073216941F0200121612073E2E74C
:1023F0002DE9F0471E4690460D460446C1F30747B7
:10240000DDF8209008E0701C06D0FEF7B5FEA0EBCA
:102410000900B0420FD876B12068012F18D080692A
:1024200025EA00000004000C14D000214145EAD048
:102430000020BDE8F087002044F8300F20216173B0
:10244000A073216941F02001216120730120F0E790
:102450004069E5E70121E9E72DE9F0479A46914611
:102460000E46044600254FF02008C1F3074725E03B
:1024700020684069C043400514D42068016841F4D5
:102480000071016021686FF480604861256384F801
:102490003D8084F83E50206C40F00400206484F8B5
:1024A0003C501FE0B9F1FF3F08D0FEF765FEA0EBFE
:1024B0000A0149450CD8B9F1000F09D02068012F55
:1024C00013D0806926EA00000004000C0BD0CFE78F
:1024D00044F8305F84F80D80A573206940F0200037
:1024E000206125730120BDE8F0874069EAE72DE906
:1024F000F041002590460E460446202717E040692B
:10250000C043C0060CD454F8301B6FF01000486173
:1025100044F810596777A577206A2062257717E07D
:10252000FEF72AFEA0EB0800B04208D83EB12068B2
:102530004169C9434906E2D40020BDE8F08144F86E
:10254000305F6773A573206940F020002061257318
:102550000120F2E770B516460D4604460DE0204610
:10256000FFF75AFE08B1012070BD681C05D0FEF7C8
:1025700003FE801BA84207D835B120684069C043DC
:102580000006ECD4002070BD002044F8300F20215C
:102590006173A073216941F0200121612073E2E79A
:1025A00070B500F02DF84FF44870FEF7D9FC1148D3
:1025B000017840780D0901F00F0161F31F10FDF75C
:1025C000E0FE06460C462846FDF7DBFE02460B46BB
:1025D00000204FF0804100F0D1FB32462346FDF74A
:1025E00059FE054A054BFDF755FEBDE87040FDF765
:1025F000D5BE0000010000200AD7A3703D0AA73F06
:102600003EB503208DF804004FF4FA74012301AAAB
:1026100094210F480094FEF775FF01230D4A942181
:102620000B480094FEF768FE04208DF80800012393
:1026300002AA942106480094FEF764FF054A01238C
:10264000521C942102480094FEF756FE3EBD000045
:1026500064000020010000203EB500240D480094D5
:10266000019402940A498460016001250573047590
:1026700005614FF460214460C161FEF701FB072052
:102680000094CDE9015069460248FEF703FA3EBDC9
:10269000002401403400002070B586B000241C489E
:1026A0000094019402940394816941F010018161C6
:1026B000816901F010010491816941F0200181617B
:1026C000816901F020010491816941F00401816177
:1026D000816901F004010491816941F0080181617F
:1026E00080690C4E00F008004FF4804504900022F1
:1026F00029463046FEF73BFD01200095CDE9010457
:102700000220039069463046FEF73CFC06B070BDDF
:10271000001002400010014010B586B0002411489E
:10272000009401940294039404944FF08041059422
:1027300001601121C0E901140321C0E9031484617F
:10274000FFF765FB4FF48050009069460548FFF79E
:102750009DFB049404A903480594FFF737FB06B0DA
:1027600010BD0000B8000020FEE7704770477047BA
:102770001FB50022CDE900120121CDE90212694600
:10278000FEF700FC1FBD1FB5002200910121CDE91D
:102790000112032103916946FEF7F4FB1FBDFEF70A
:1027A00077BF30B593B028216846FDF7D2FC1421DD
:1027B0000AA8FDF7CEFC002401200F941094119478
:1027C000010412948DE8130004904FF4E010CDE959
:1027D0000810022507956846FFF754F90F20CDE948
:1027E0000A056802CDE90C4002210AA80E94FFF701
:1027F0005DF8A80311900F950FA8FEF7E1FF13B045
:1028000030BD00000D48016841F0010101604168E0
:102810000B4A1140416001680A4A11400160016899
:1028200021F480210160416821F4FE0141604FF4F0
:102830001F0181600449C003086070470010024016
:102840000000FFF8FFFFF6FE08ED00E0F0B50268BB
:10285000164B174C174D4FF08047984205D0B842A1
:1028600003D0A04201D0A84203D122F070064A68EA
:102870003243984205D0B84203D0A04201D0A842CA
:1028800003D122F44074CA6822434C6922F08002CA
:10289000224302608A68C2620A688262984201D159
:1028A0000969016301214161F0BD0000002C014074
:1028B000000400400008004010B5846842EA03228A
:1028C00024F47F440A432243826010BD826822F0D0
:1028D00070020A4342F007018160704710B5036A35
:1028E000046A24F001040462846924F0F00444EAD8
:1028F000021423F00A020A438461026210BD10B57B
:10290000036A23F0100303628369046A23F47043AB
:1029100043EA023224F0A00343EA0111826101621A
:1029200010BD10B5406A0021C185C184FFF719FBB5
:1029300010BD0168CA6822F49072CA6001684A69D1
:1029400022F001024A61202180F83A10704710B548
:1029500090F83A10222901D0022010BD8168B1F50B
:10296000805F11D00169002901681FD0496801F01A
:102970007F03816A4A1C82620B70C18D491E090463
:10298000090CC18518D02BE00269816A002A02680F
:10299000526805D0D2B20A80816A491C8162ECE794
:1029A000C2F308020A80816A891CF7E74A68816AD3
:1029B0004B1C83620A70E0E70168CA6822F02002BB
:1029C000CA600168CA6822F48072CA6001684A69F4
:1029D00022F001024A61202180F83A10FFF7BCFB87
:1029E000002010BD2DE9F041044600680169E2684D
:1029F00021F44051114301612169A06808436169D4
:102A000008432168CA6841F20C639A430243CA60D2
:102A100020684169A26921F44071114341611E4956
:102A2000206864253226884202D1FEF7E5FF01E0E6
:102A3000FEF7D2FF00EBC00101EB001160686FF000
:102A400018078000B1FBF0F2B2FBF5F2B1FBF0F336
:102A50007A4303EB8202B1FBF0F306EB0212B2FB06
:102A6000F5F2B3FBF5F302F0F00202EB0312B1FB57
:102A7000F0F3B1FBF0F0B0FBF5F0784303EB80002E
:102A800006EB0010B0FBF5F0216800F00F001044D9
:102A90008860BDE8F08100000038014090F83910EE
:102AA000212901D0022070478168B1F5805F016A59
:102AB0000BD04A1C0262026809785160C18C491E21
:102AC0000904090CC1840ED017E009880268C1F31B
:102AD0000801516001690029016A02D0491C0162A4
:102AE000ECE7891CFBE70168CA6822F08002CA6033
:102AF0000068C16841F04001C160002070472DE9C5
:102B0000F041984617460E460446069D1DE0681C97
:102B10001BD02DB1FEF730FBA0EB0800A84214D962
:102B20002068C16821F4D071C1602068416921F03A
:102B300001014161202084F8390084F83A00002026
:102B400084F838000320BDE8F0812068006836EA88
:102B5000000004D00020B842D9D00020F3E70120C3
:102B6000F9E700000148FFF7FDB90000F800002078
:102B7000FEE7490050EAC12018BF04204A0D18BFE3
:102B800040F0010040F2FF72B2EB515F08BF40F02D
:102B90000200012808BF052070470907090E002818
:102BA00004DB00F1E02080F80014704700F00F0013
:102BB00000F1E02080F8141D70472DE9F0414F1E10
:102BC00000EBC7010446D1E9000115461E4637F067
:102BD00006020DD02A463346FDF75CFB7F1E04EB50
:102BE000C703D3E90023FDF789FC37F00602F1D1D2
:102BF000022F25D0042F13D0062F18BFBDE8F08177
:102C00002A463346FDF746FBD4E90A23FDF776FC56
:102C10002A463346FDF73EFBD4E90823FDF76EFC58
:102C20002A463346FDF736FBD4E90623FDF766FC5A
:102C30002A463346FDF72EFBD4E90423FDF75EFC5C
:102C40002A463346FDF726FBD4E90223FDF756FC5E
:102C50002A463346FDF71EFBD4E90023BDE8F041C8
:102C6000FDF74CBC0022134610460149FDF7EDBCB0
:102C70000000F03FFDF742BC00221346104611460B
:102C8000FDF7E3BC40F2013200204FF0E041FDF7D8
:102C90004BBD0000024A00201107FDF745BD0000B2
:102CA00001FDFFFF02E008C8121F08C1002AFAD187
:102CB00070477047002001E001C1121F002AFBD1BC
:102CC0007047000001490860704700003000002094
:102CD00010B504460848FFF7C7F807494FF0804091
:102CE0000022C96805E04262436A8B42FCD1641E3F
:102CF000A4B2002CF7D110BDB8000020FEF7D0FC24
:102D0000FFF74FFDFFF7C8FCFFF7A6FCFFF704FD38
:102D100017481649002401604FF41651C0E9011408
:102D20000C21C460C0E904418461C461FFF7A2F9C9
:102D30000F481049943801600F49C0E901144FF45D
:102D40008041C0E9034144618461C4610462FEF7CB
:102D500019FA0748C438FEF757F84FF47A7400BFE1
:102D600000F012FD2046FEF7FBF8F9E700380140BD
:102D7000F800002000580040A08601002DE9F04D29
:102D80001D460C4698B0174621F0004123F0004341
:102D9000002814BF4FF0010C4FF0000C0CEB440C5A
:102DA000FE4A0CEB02064FEA620C66452BD33E004E
:102DB00018BF012606EB45061644F94A964222D36F
:102DC000F84A53EA070C02D0944205D148B918B02A
:102DD00000201146BDE8F08D002808BF4FF0000C20
:102DE00001D04FF0010C0CEB440212F5001F0AD881
:102DF000002F14BF4FF0010C4FF0000C0CEB4502FC
:102E000012F5001F07D918B03A462B462146BDE8F7
:102E1000F04DFFF72FBF0022DFF88CA3002CB8BFC6
:102E2000534526DADFF884C36345A8BF022220DABF
:102E3000DFF870C39C451CDCDFF874C30CEB235C2B
:102E4000BCF1140F08DDCCF1340627FA06FC0CFAAD
:102E500006F6BE420DD108E05FB9CCF1140623FAA4
:102E600006FC0CFA06F69E4203D10CF00102C2F1F8
:102E7000020251EA000C19D1002D17DA002C18BFFC
:102E8000022A01D0012A07D00220FFF71BFF18B049
:102E9000BDE8F04DFFF7E6BE0220FFF713FFFFF796
:102EA000E1FE18B081F00041BDE8F08DB7F1000CF3
:102EB0006CD1534525D104F1804212F5801201BF37
:102EC00000280020B74918B008BFBDE8F08DB5480C
:102ED000884207DC002DA1BF6046294618B0BDE836
:102EE000F08D07E0281E05DA80F0004118B060463A
:102EF000BDE8F08DAF497944D1E9000118B0BDE8D3
:102F0000F08DDFF8A0C2634525D1002D1FDA19B17D
:102F1000514512D1D8B909E0002840F0EC82A24A0C
:102F2000214618B062F31E01BDE8F08D0020214655
:102F300018B060F31E01BDE8F08D08DA18B0234622
:102F4000BDE8F04D024600206146FDF77EBB18B09B
:102F50002146BDE8F08D514518DAB5F1804F0DD00E
:102F6000A5F1005CBCF1FF5C10D1B4F1000C0DDBED
:102F700018B06146BDE8F04D00F05ABC234618B0C9
:102F80000246BDE8F04D1946FDF784B9060024F06D
:102F9000004C3BD1D9B1514533D1002C06DD002D79
:102FA000A1BF0020514618B0BDE8F08D002C01DD16
:102FB000002D1BDB002C13DA002D11DB012A4FF052
:102FC000000014BF78497C4918B0BDE8F08D022A92
:102FD00018BF002C0AD0012A08D1002C06DA0AE01A
:102FE000002CB8BF002D11DA012A04D0002018B03F
:102FF0000146BDE8F08D18B000204FF00041BDE85B
:10300000F08DA1F14050B0F17F601AD0012000EBAB
:10301000E47050EA020421D0624C521E4FF0000BC3
:10302000104304BF4FF0000B644C654883427CDDC5
:10303000644A654893421FDD884217DB002D25DB7B
:1030400037E0002C00DA4AB1022A0CBF01204FF011
:10305000FF3018B0BDE8F04DFDF77DBB0120FFF754
:1030600031FE18B0BDE8F04DFFF706BE4D4A8A426A
:1030700002DC002D0ADC1CE0814202DA002D18DAA5
:1030800004E0484B994220DD002D12DD0220FFF7BD
:1030900019FEFFF7F7FD05460E4600225346584637
:1030A0002146FDF7F7F818B066F31E012846BDE883
:1030B000F08D0220FFF706FEFFF7ECFD0A462146E1
:1030C00018B062F31E01BDE8F08D00223046614663
:1030D000FDF7B5FA80460E466FF00102FDF724FBBE
:1030E0004FF05532394BFDF7ADFA42463346FDF706
:1030F000D1F80022364BFDF7A5FA82464246334608
:10310000049110461946FDF7C5F85246049BFDF799
:10311000C1F88A4600904FF0C0422E4B40463146DF
:10312000FDF7B8F82C4A2B4B00E027E0CDE906016B
:1031300051460098FDF7AEF882460191274A284B88
:1031400040463146FDF7A6F85246019BFDF777FA57
:1031500082460B4602460591DDE90601FDF7CEF9F0
:10316000DDE90623002688463046FDF768FA524618
:10317000059BFDF767FA024600F07EB90020B1F525
:10318000801F07DA352230466146FDF7CDFA064644
:103190006FF0340000EB215024E00000FFFF1F001F
:1031A000FFFF0F000000F03F0000F07F00004043F1
:1031B00001FCFFFF260A00000000F0FF0000F0BF46
:1031C0000000E0410000F043FFFFEF3F5555D53FC1
:1031D0000000E03F4715F73FFE822B6544DF5DF8B6
:1031E0000BAE543EA0F2FF300190C1F3130040F04B
:1031F0007F6141F040510291FE498842D8BF0020D2
:1032000004DDFD498142C8BF012001DD0D9008E0C9
:1032100000200D900198401C01900298A0F58010AC
:1032200002900299F54878440B910D9900EBC1008A
:10323000D0E900230F9330460A920B99FDF7FFF96E
:10324000CDE90601DDE90A2130460F9BFDF756F96D
:1032500002460B460020EA49FDF7F7F905910246C0
:103260000B460090DDE90601FDF714F81490E548DF
:103270008A464FF0000878440299006812904FF097
:10328000005040EA61010D980F9B01EB804000F572
:10329000002109910A9A1298FDF7D1F932460B9B49
:1032A000FDF7D0F942465346FCF7F4FF064602917B
:1032B00040465146099B129AFCF7ECFFDDE90623D4
:1032C000FDF7C0F93246029BFDF7B9F9059B009A5C
:1032D000FCF7E0FF0091149A0490534610461946FB
:1032E000FCF7D8FF06460246C7480B460291062166
:1032F0007844FFF762FCCDE90510029B3246104688
:103300001946FCF7C7FFDDE90532FCF7C3FF05915D
:103310000646534640461946149AFDF7EFF8009BBF
:10332000049AFCF7B7FF3246059BFDF7E7F8CDE9B5
:1033300005104246534610461946FCF7ABFF0022E3
:10334000B24B02910A90FDF7D9F8DDE90532FDF79D
:10335000D5F80E464246AD4B4046FDF770F9029B4C
:103360000A9AFDF76CF9DDE90532FDF76BF9424683
:1033700002910A90334610465146FCF78BFFCDE987
:1033800006015346149A02990A98FCF783FF8A466D
:1033900002903346424600990498FCF77BFF53465F
:1033A000029AFDF7ABF882460B4602460591DDE92D
:1033B0000601FDF7A3F8DDE906230020884606464E
:1033C000FDF73DF95246059BFDF73CF98246099110
:1033D0004FF060428E4B30464146FCF75BFF049055
:1033E00006918C4A8A4B50460999FCF753FF824656
:1033F0000291894A894B30464146FCF74BFF5246C1
:10340000029BFDF77BF8864B7B440D9A03EBC203CE
:10341000D3E90023FDF772F80E9007910198FDF7AC
:103420009AF90591DDE9061382460E9A0498FDF794
:1034300065F87C4A7A440D9B02EBC303D3E9002371
:1034400000930292FDF75AF85246059BFDF756F895
:103450000026884652463046059BFDF7F0F8009B53
:10346000029AFDF7ECF8069B049AFDF7E8F8079B33
:103470000E9AFDF7E7F8024600200B460290384608
:103480002946FCF707FF824601912B46384619462C
:10349000029AFDF7D4F832464346FCF7FBFE52464B
:1034A000019BFDF72BF807468A46324643462946DC
:1034B0000298FCF7EFFE05460E463A465346FDF7E6
:1034C0001DF8594A8846914221DBA8EB020353EAD2
:1034D000000210D12A463346FDF7B1F8CDE90401C8
:1034E000524A534B38465146FDF708F8DDE90423AC
:1034F000FDF742F921D20220FFF7E4FBFFF7C2FB00
:103500000A46214618B062F31E01BDE8F08D494B12
:1035100028F000429A4210D3474A08EB020353EACC
:1035200000027FF4C6AD2A463346FDF788F83A46D6
:103530005346FDF721F97FF6BCAD0022019228F039
:1035400000403E493E4A01EB2051824223DA481CAA
:103550004FF4801121FA00F040443A4AC0F30A5176
:103560007A44394BA1F2FF31CB4020EA0303C0F388
:10357000130040F48010C1F11401C840126801909A
:10358000B8F1000FBCBF4042019028463146FDF71C
:1035900056F805460E462A46334638465146FCF74D
:1035A000ADFF4FF000084246284B40460591FCF71E
:1035B00071FECDE90601264A264B40460599FCF7E7
:1035C00069FE009102902A46334640460599FDF770
:1035D00036F83A465346FDF735F81F4A1F4BFCF7BD
:1035E00059FE009B029AFCF789FF0746884602466F
:1035F0000B4635E08E9803007AB60B006E0600008D
:103600000000F03FA6060000D405000000000840BE
:1036100009C7EE3FFD033ADCF5015B14E02F3EBE27
:10362000AC0400007004000000009040FE822B6596
:103630004715973C00CC904000346F3F01FCFFFFE2
:103640000000E03FBC030000FFFF0F00432EE63FF9
:10365000396CA80C615C20BEEF39FAFE422EE63FC1
:10366000DDE90601FCF74AFFDDE9062305460E46C3
:10367000FCF7E5FF3A464346FCF7E4FF0F462A46CF
:103680003346009010461946FCF704FE8246024677
:103690002E4888460B4605217844FFF78EFA52469D
:1036A0004346FCF7F7FD2A463346FCF7CBFF80463E
:1036B0008A463B4628463146009AFCF7EBFD3B46DE
:1036C000009AFCF71BFF0691009000224FF0804308
:1036D00040465146FCF7B3FF0F460C904246534616
:1036E00028463146FCF7D6FD3B460C9AFCF7ADFF69
:1036F000069B009AFCF7A3FF2A463346FCF79FFF80
:103700000022134BFCF79EFF054601980E4601EB85
:1037100000510815002810DC28463146019AFDF7B3
:1037200003F8FFF726FA042808BFFFF7B3FA284684
:103730003146019AFCF7F8FF05460B4618B02A46B9
:1037400058462146BDE8F04DFCF7A4BD5C020000E0
:103750000000F03F70B500250646012409E0094845
:10376000FDF717FA284485B20A20FDF7F9FB641C1F
:10377000E4B2B442F3D9642045433003B5FBF0F022
:10378000C0B270BD340000202DE9F041FDF7F6F81D
:10379000244CE078FCF7F0FD234E3146FCF73CFD6D
:1037A0000546A078FCF7E8FD2946FCF7DDFCA4F10E
:1037B0001805E91CE86008604FF47A773B4604225C
:1037C0001A48FEF7CAFC6078FCF7D6FD3146FCF7D4
:1037D00023FD06462078FCF7CFFD3146FCF7C4FCFC
:1037E000E91C286108603B4604221048FEF7B5FC3E
:1037F0000A20FFF7AFFFFCF7BFFDE91CA8600860D7
:103800003B4604220948FEF7A8FCFEF7C9FEE91C66
:10381000686108603B46BDE8F04104220348FEF7BA
:103820009CBC00001800002000002041F80000208F
:103830002DE9F04106460F46FCF7E9FF041E0D4650
:1038400018BF0120284320F00040C0F17F6000F144
:10385000E040C00F0ED0301C18BF0120384320F0CC
:103860000040C0F17F6000F1E040C00F04BF0120C4
:10387000FFF728FA20462946BDE8F0810000000045
:103880000000000001020304060708090000000010
:103890000102030400000000000000000000F03FEF
:1038A000000000000000F83F0000000000000000E1
:1038B0000000004003B8E23F0000000000000000EC
:1038C00006D0CF43EBFD4C3E033333333333E33F7A
:1038D000FFAB6FDBB66DDB3F4D268F515555D53FA6
:1038E00001411DA96074D13F65DBC9934A86CD3F74
:1038F000EF4E454A287ECA3F3E5555555555C53F62
:1039000093BDBE166CC166BF2CDE25AF6A56113F53
:10391000F16BD2C541BDBBBED0A4BE726937663E55
:1039200000000000000000004839000800000020EE
:1039300034000000A42C00087C390008340000206A
:1039400004050000B42C0008000000000000000086
:103950000000000000000000000000000000000067
:103960000000000000000000010000001000000046
:0C397000000000000024F4000000000033
:04000005080000ED02
:00000001FF
